:100000000C9434000C9451000C9451000C94510049
:100010000C9451000C9451000C9451000C9451001C
:100020000C9451000C9451000C9451000C9451000C
:100030000C9451000C9451000C9451000C945100FC
:100040000C9451000C9451000C94B8010C94F001E4
:100050000C9451000C9451000C9451000C945100DC
:100060000C9451000C94510011241FBECFEFD4E02A
:10007000DEBFCDBF11E0A0E0B1E0E2E8F4E002C0F5
:1000800005900D92AC32B107D9F711E0ACE2B1E0C6
:1000900001C01D92A337B107E1F70E9417020C942B
:1000A0003F020C9400003D9A0895459A8FE39CE925
:1000B0000197F1F700C0000086E691E10197F1F7A2
:1000C00000C0000045988FE19EE40197F1F700C061
:1000D00000008DE09BE00197F1F700C0000008955B
:1000E000882311F0459A01C0459882E59CE001976C
:1000F000F1F700C00000459882E59CE00197F1F718
:1001000000C000000895AF92BF92CF92DF92EF92AD
:10011000FF920F931F93CF93DF9300D0CDB7DEB73D
:10012000D62E89839A830E9455008981C82EA82ED5
:100130009A81B92E8A2D8C198D15C0F4F501E190A4
:100140005F0107E010E0F12CC701002E02C0959579
:1001500087950A94E2F780FF02C081E001C080E049
:100160000E9470000150110978F7E4CF0F900F90B2
:10017000DF91CF911F910F91FF90EF90DF90CF9083
:10018000BF90AF90089590912D019134E0F4E091EB
:100190002901F0912A01808380912D018F5F809346
:1001A0002D018091290190912A01019690932A01B5
:1001B000809329018257914030F082E391E090933F
:1001C0002A01809329010895E0912301F0912401EF
:1001D000219180912C01815080932C0181E0E337A3
:1001E000F80728F4F0932401E093230106C082E786
:1001F00091E090932401809323012093C600809185
:100200002C01811105C08091C1008F7D8093C100B8
:10021000089563EC70E084EE90E00E947D010E94FE
:100220009B0182E391E090932A01809329019093AE
:1002300028018093270110922D0182E791E090938D
:10024000260180932501909324018093230110922D
:100250002C01089580912D01089580912D0188230E
:10026000E1F38091C1008F768093C100E091270176
:10027000F0912801819190912D01915090932D0141
:1002800091E0E237F90728F4F0932801E093270181
:1002900006C022E331E0309328012093270190919A
:1002A000C10090699093C10008959091C1009F7D15
:1002B0009093C10090912C019130E1F3E0912501E0
:1002C000F0912601808380912C018F5F80932C0117
:1002D0008091250190912601019621E083379207B4
:1002E00010F082E791E090932601809325018091A0
:1002F000C10080628093C100089523E031E0309313
:10030000C5002093C40022E02093C00026E0209383
:10031000C2002091C2002093C2001092C1009093AD
:1003200031018093300170932F0160932E01892B4E
:1003300009F0519A08958091300190913101892BF3
:1003400029F08091C10088628093C10080912E01C4
:1003500090912F01892B29F08091C10080698093B1
:10036000C1000895E1ECF0E08081877480830895F6
:100370001F920F920FB60F9211242F933F934F931A
:100380005F936F937F938F939F93AF93BF93EF93FD
:10039000FF938091C0008C7159F08091C1008F76DD
:1003A0008093C1008091C10080698093C10007C023
:1003B0008091C600E0912E01F0912F010995FF91E7
:1003C000EF91BF91AF919F918F917F916F915F91CD
:1003D0004F913F912F910F900FBE0F901F90189546
:1003E0001F920F920FB60F9211242F933F934F93AA
:1003F0005F936F937F938F939F93AF93BF93EF938D
:10040000FF93E0913001F09131010995FF91EF9157
:10041000BF91AF919F918F917F916F915F914F911C
:100420003F912F910F900FBE0F901F9018950E9433
:1004300053000E94090178940E942D018D3689F0A5
:1004400040F48F34B1F08436B9F767E085E191E08C
:1004500013C08F3651F0853779F767E08CE191E072
:100460000BC067E08EE091E007C067E087E091E0B5
:1004700003C067E080E091E00E948300DDCFF89444
:02048000FFCFAC
:10048200D7DAD5BF755680D7DAD5FED55680D7DAFA
:10049200D5DADB7680D7DAD5AEDEB680D7DAD5ED1F
:0C04A200B5B68072017201320132010017
:00000001FF
