:100000000C9434000C9424010C9451000C94510075
:100010000C9451000C9451000C9451000C9451001C
:100020000C9451000C9451000C9451000C9451000C
:100030000C9451000C9451000C9451000C945100FC
:100040000C9451000C9451000C9451000C945100EC
:100050000C9451000C9451000C9451000C945100DC
:100060000C9451000C94510011241FBECFEFD4E02A
:10007000DEBFCDBF11E0A0E0B1E0ECE6F7E002C0EA
:1000800005900D92A630B107D9F711E0A6E0B1E0D6
:1000900001C01D92A232B107E1F70E948E030C94B9
:1000A000B4030C9400008F7098B1982B98B998B154
:1000B000806F892388B9089598B121E030E0082E37
:1000C00001C0220F0A94EAF7922B98B9089598B1CB
:1000D00021E030E0082E01C0220F0A94EAF72095B3
:1000E000292328B9089587B18F6087B988B1807FA7
:1000F00088B90895E09AE89A0895E8981092060160
:100100000895809106018823E1F308958091060106
:100110000895109206010C947A00289A0895289860
:1001200008951F93CF93DF93EC010E948A0380EA26
:100130000E947D03182F40E050E0BE0189E10E943B
:1001400052030E948C03812FDF91CF911F9108955C
:100150001F93CF93DF93EC010E948A0381E60E94F4
:100160007D03182FAE01BE0189E10E9452030E9457
:100170008C03812FDF91CF911F910895EF92FF9211
:100180000F931F93CF93DF931F92CDB7DEB7062F48
:100190007A0189830E948A0389810E947D03182F36
:1001A00040E050E0B701802F0E9452030E948C0370
:1001B000812F0F90DF91CF911F910F91FF90EF90C2
:1001C0000895EF92FF920F931F93CF93DF931F92A7
:1001D000CDB7DEB7062F7A0189830E948A03898111
:1001E0000E947D03182FA701B701802F0E945203A0
:1001F0000E948C03812F0F90DF91CF911F910F915F
:10020000FF90EF9008951F93CF93DF9300D0CDB769
:10021000DEB76A8389830E948A03898180620E9493
:100220007D03182F6A81862F0E947D030E948C0314
:10023000812F0F900F90DF91CF911F910895682F1C
:100240006F7785E00C9403011F920F920FB60F9207
:1002500011242F933F934F935F936F937F938F93CB
:100260009F93AF93BF93CF93EF93FF930E948F0021
:100270000E947D0080912001909121010E94A800A0
:10028000C82F8F7090E00E9453006C2F606487E04D
:100290000E94030181E0809306010E948D00FF917E
:1002A000EF91CF91BF91AF919F918F917F916F917E
:1002B0005F914F913F912F910F900FBE0F901F9024
:1002C0001895CF93DF931F92CDB7DEB789830E9435
:1002D0008A0389810E947D0380E00E947D038983D7
:1002E0000E948C0389810F90DF91CF910895CF9365
:1002F000DF93EC010E948F00209A0E9434030E9439
:100300003D03D0932101C093200152985A9A82E074
:100310008093690080E00E94610183FFFBCF6AE364
:1003200080E00E94030163E083E00E94030161E238
:1003300084E00E94030162E086E00E94030160E025
:1003400081E00E94030160E082E00E94030160E01E
:1003500081E10E94030160E082E10E94030160E00C
:1003600083E10E94030160E084E10E94030160E0F8
:1003700085E10E94030160E086E1DF91CF910C945A
:100380000301CF93C82F86E00E946101682F697F27
:10039000C6706C2B86E0CF910C940301FF920F93F3
:1003A0001F93CF93DF93F82E8B0169E181E18F0DCD
:1003B0000E94030181E00E946101C1E0D0E00F2CA6
:1003C00001C0CC0F0A94EAF76C2F682B81E00E94E1
:1003D000030182E00E9461016C2F682B82E00E9481
:1003E00003018AE08F0D91E09F1548F0A80165E0B8
:1003F000DF91CF911F910F91FF900C94BE00F801F7
:100400006081DF91CF911F910F91FF900C940301B8
:10041000CF93C82F82E00E94610161E070E001C0CB
:10042000660FCA95EAF76095682382E0CF910C9435
:100430000301CF93DF931F92CDB7DEB70E948A03EB
:1004400081EE0E947D0389830E948C0389810F9035
:10045000DF91CF9108950E94190260E787E00E9422
:1004600003016AE380E00E94030189E892E00197BA
:10047000F1F700C000000895CF93DF931F92CDB72E
:10048000DEB70E948A0382EE0E947D0389830E9468
:100490008C0389810F90DF91CF9108950E948F0086
:1004A0000E943C020C947D00813011F40C942B02CC
:1004B000823089F40E943C0260E787E00E940301D9
:1004C0006BE380E00E94030189E892E00197F1F775
:1004D00000C0000008950E948F0068E380E00C9443
:1004E00003011092060182E00E9454020E947A00E9
:1004F0000C948D00CF93DF931F92CDB7DEB70E948F
:100500008A0383EE0E947D0389830E948C03898184
:100510000F90DF91CF910895CF93DF931F92CDB7C6
:10052000DEB70E948A0380E60E947D0380E00E947D
:100530007D0389830E948C0389810F90DF91CF9185
:100540000895EF92FF920F931F93CF93DF931F9223
:10055000CDB7DEB7062F7A0189830E948A0389818D
:1005600080660E947D03182F40E050E0B701802F85
:100570000E9452030E948C03812F0F90DF91CF9134
:100580001F910F91FF90EF900895EF92FF920F93BC
:100590001F93CF93DF931F92CDB7DEB7062F7A015B
:1005A00089830E948A038981806B0E947D03182FB2
:1005B00040E050E0B701802F0E9452030E948C035C
:1005C000812F0F90DF91CF911F910F91FF90EF90AE
:1005D0000895CF93DF931F92CDB7DEB70E948A03B1
:1005E0008FEF0E947D0389830E948C0389810F9085
:1005F000DF91CF9108950F931F93CF93DF93EC0179
:100600008B010E948F000E942B02AE0165E08AE000
:100610000E94BE00AE0165E080E10E94BE00C801FC
:100620000E9491000E948D0084E68A95F1F70E9455
:100630008F000E94E9028073E1F30E94E902C82F53
:100640000E94E902682F606387E00E94030182E054
:100650000E9454020E948D00C5FB882780F9DF911B
:10066000CF911F910F910895449A3C9A549A519AB0
:10067000509880EC8093C2000895E4ECF0E0118281
:100680001082A1ECB0E08C9188618C93549A81E047
:1006900090E0918380830895E1ECF0E08081877E93
:1006A000808308954115510519F4FB01982F22C04C
:1006B000DA01FB01982F915078F02091C00025FFBE
:1006C000FCCF21912093C6002091C00027FFFCCFD2
:1006D0002091C6002D93EFCF08952091C00025FFF3
:1006E000FCCF21912093C6002091C00027FFFCCFB2
:1006F0002091C600915088F708959091C00095FF11
:10070000FCCF8093C6008091C00087FFFCCF809112
:10071000C600089544980895449A0895CF93DF93AE
:100720001F92CDB7DEB70E94730086E00E9453008F
:1007300087E091E00E9477018AE00E941F0178948F
:1007400060E071E081E00E94CE010E94710280E0D1
:1007500089830E9481000E948900898111E0180F1D
:0C0760000E945300812FF4CFF894FFCFCB
:06076C00C2C2C2C2C200BD
:00000001FF
