:100000000C9434000C941F010C9451000C9451007A
:100010000C9451000C9451000C9451000C9451001C
:100020000C9451000C9451000C9451000C9451000C
:100030000C9451000C9451000C9451000C945100FC
:100040000C9451000C9451000C9403040C943B0448
:100050000C9451000C9451000C9451000C945100DC
:100060000C9451000C94510011241FBECFEFD4E02A
:10007000DEBFCDBF11E0A0E0B1E0EEE0F9E002C0EC
:1000800005900D92AA31B107D9F711E0AAE1B1E0CC
:1000900001C01D92AD3DB107E1F70E9462040C94CE
:1000A00085040C9400008F7098B1982B98B998B182
:1000B000806F892388B9089598B121E030E0082E37
:1000C00001C0220F0A94EAF7922B98B9089598B1CB
:1000D00021E030E0082E01C0220F0A94EAF72095B3
:1000E000292328B9089587B18F6087B988B1807FA7
:1000F00088B90895E09AE89A0895E89810921A014C
:10010000089580911A018823E1F3089580911A01DE
:10011000089510921A010C947A00289A089528984C
:1001200008951F93CF93DF93EC010E94FE0280EAB3
:100130000E94F802182F40E050E0BE0189E10E94C1
:10014000DA020E940003812FDF91CF911F91089561
:100150001F93CF93DF93EC010E94FE0281E60E9481
:10016000F802182FAE01BE0189E10E94DA020E9456
:100170000003812FDF91CF911F910895EF92FF929D
:100180000F931F93CF93DF931F92CDB7DEB7062F48
:100190007A0189830E94FE0289810E94F802182F49
:1001A00040E050E0B701802F0E94DA020E94000375
:1001B000812F0F90DF91CF911F910F91FF90EF90C2
:1001C0000895EF92FF920F931F93CF93DF931F92A7
:1001D000CDB7DEB7062F7A0189830E94FE0289819E
:1001E0000E94F802182FA701B701802F0E94DA029F
:1001F0000E940003812F0F90DF91CF911F910F91EB
:10020000FF90EF9008951F93CF93DF9300D0CDB769
:10021000DEB76A8389830E94FE02898180620E9420
:10022000F802182F6A81862F0E94F8020E940003AC
:10023000812F0F900F90DF91CF911F9108951F9202
:100240000F920FB60F9211242F933F934F935F930A
:100250006F937F938F939F93AF93BF93EF93FF938E
:100260000E948F000E947D00809153019091540163
:100270000E94A800682F606487E00E94030181E06B
:1002800080931A010E948D00FF91EF91BF91AF9171
:100290009F918F917F916F915F914F913F912F919E
:1002A0000F900FBE0F901F901895CF93DF931F9262
:1002B000CDB7DEB789830E94FE0289810E94F802D1
:1002C00080E00E94F80289830E94000389810F90D8
:1002D000DF91CF910895DF92EF92FF920F931F93DA
:1002E000CF93DF93D82EEB017A0189010E948F0012
:1002F000209A0E94CA020E94D202F0925601E09215
:100300005501109354010093530152985A9A82E078
:100310008093690080E00E94550183FFFBCF6BE36F
:1003200080E00E94030163E081E00E94030163E03A
:1003300082E00E94030161E083E00E94030160E02B
:1003400084E00E94030166E086E00E94030169E107
:1003500081E10E94030169E182E10E9403016D2DA8
:1003600085E00E940301AE0163E08BE0DF91CF9155
:100370001F910F91FF90EF90DF900C94BE00CF93F0
:10038000DF931F92CDB7DEB70E94FE0281EE0E947E
:10039000F80289830E94000389810F90DF91CF9139
:1003A00008950E94BF0160E787E00E9403016AE3AD
:1003B00080E00C940301CF93DF931F92CDB7DEB79B
:1003C0000E94FE0282EE0E94F80289830E940003CE
:1003D00089810F90DF91CF9108950E948F000E9434
:1003E000DB010C947D00813011F40C94D10182303A
:1003F00041F40E94DB0160E787E00E9403016BE3A8
:1004000003C00E948F0069E380E00C940301109206
:100410001A0182E00E94F3010E947A000C948D0080
:10042000CF93DF931F92CDB7DEB70E94FE0283EE1B
:100430000E94F80289830E94000389810F90DF9156
:10044000CF910895CF93DF931F92CDB7DEB70E946F
:10045000FE0280E60E94F80280E00E94F802898392
:100460000E94000389810F90DF91CF910895EF9250
:10047000FF920F931F93CF93DF931F92CDB7DEB7F9
:10048000062F7A0189830E94FE02898180660E947C
:10049000F802182F40E050E0B701802F0E94DA02E6
:1004A0000E940003812F0F90DF91CF911F910F9138
:1004B000FF90EF900895EF92FF920F931F93CF93C9
:1004C000DF931F92CDB7DEB7062F7A0189830E9492
:1004D000FE028981806B0E94F802182F40E050E0F4
:1004E000B701802F0E94DA020E940003812F0F9033
:1004F000DF91CF911F910F91FF90EF900895CF93CF
:10050000DF931F92CDB7DEB70E94FE028FEF0E94ED
:10051000F80289830E94000389810F90DF91CF91B7
:1005200008950F931F93CF93DF93EC018B010E94EB
:100530008F000E94D101AE0163E08AE00E94BE00FC
:10054000AE0163E080E10E94BE00C8010E949100FC
:100550000E948D0084E68A95F1F70E948F000E9428
:100560007F028073E1F30E947F02C82F0E947F0206
:10057000682F606387E00E94030182E00E94F3011C
:100580000E948D00C5FB882780F9DF91CF911F91D4
:100590000F9108953C9A259A239A2498229A81E1F2
:1005A0008CBD08958CB580648CBD08958CB58F7B0F
:1005B0008CBD08954115510519F4FB01982F12C007
:1005C000DA01FB01982F915040F021912EBD0DB41E
:1005D00007FEFDCF2EB52D93F6CF08950DB407FE7F
:1005E000FDCF2EB5915018F021912EBDF7CF089573
:1005F0008EBD0DB407FEFDCF8EB5089544980895C5
:10060000449A08950E94A00380E090E0089583E05A
:1006100091E09093DA018093D901089590911C01A3
:100620009134E0F4E0911701F091180180838091FA
:100630001C018F5F80931C0180911701909118011C
:10064000019690931801809317018759914030F0DB
:1006500087E591E090931801809317010895E09148
:100660001101F0911201219180911B018150809321
:100670001B0181E0E73DF80728F4F0931201E093B5
:10068000110106C087E991E0909312018093110156
:100690002093C60080911B01811105C08091C1008B
:1006A0008F7D8093C10008956EE073E08FE293E048
:1006B0000E94C8030E94E60387E591E09093180129
:1006C00080931701909316018093150110921C01DD
:1006D00087E991E0909314018093130190931201A4
:1006E0008093110110921B01089580911C010895BF
:1006F00080911C018823E1F38091C1008F76809363
:10070000C100E0911501F0911601819190911C01B9
:10071000915090931C0191E0E739F90728F4F09388
:100720001601E093150106C027E531E0309316016C
:10073000209315019091C10090699093C100089594
:100740009091C1009F7D9093C10090911B019034C6
:10075000E1F3E0911301F0911401808380911B017A
:100760008F5F80931B01809113019091140101967A
:1007700021E0873D920710F087E991E09093140102
:10078000809313018091C10080628093C10008951D
:1007900025E130E03093C5002093C40022E020938F
:1007A000C00026E02093C2002091C2002093C20026
:1007B0001092C1009093200180931F0170931E013D
:1007C00060931D01892B09F0519A089580911F01B2
:1007D00090912001892B29F08091C100886280933B
:1007E000C10080911D0190911E01892B29F08091FB
:1007F000C10080698093C1000895E1ECF0E0808140
:100800008774808308951F920F920FB60F92112460
:100810002F933F934F935F936F937F938F939F9308
:10082000AF93BF93EF93FF938091C0008C7159F009
:100830008091C1008F768093C1008091C100806952
:100840008093C10007C08091C600E0911D01F09126
:100850001E010995FF91EF91BF91AF919F918F91EB
:100860007F916F915F914F913F912F910F900FBEAC
:100870000F901F9018951F920F920FB60F92112490
:100880002F933F934F935F936F937F938F939F9398
:10089000AF93BF93EF93FF93E0911F01F09120017D
:1008A0000995FF91EF91BF91AF919F918F917F91AA
:1008B0006F915F914F913F912F910F900FBE0F90CD
:1008C0001F901895CF93DF931F92CDB7DEB70E948C
:1008D000730086E00E94530021E231E04AE351E0D8
:1008E00060E071E085E00E946B0178940E9407024D
:1008F00080E089830E9481000E948900898111E043
:0E090000180F0E945300812FF4CFF894FFCF00
:10090E0001AAAA000000020000000002030000007D
:0A091E0000970197015701570100EF
:00000001FF
