:100000000C9434000C9424010C9451000C94510075
:100010000C9451000C9451000C9451000C9451001C
:100020000C9451000C9451000C9451000C9451000C
:100030000C9451000C9451000C9451000C945100FC
:100040000C9451000C9451000C946D040C94A50474
:100050000C9451000C9451000C9451000C945100DC
:100060000C9451000C94510011241FBECFEFD4E02A
:10007000DEBFCDBF11E0A0E0B1E0E2E0FAE002C0F7
:1000800005900D92A032B107D9F711E0A0E2B1E0DE
:1000900001C01D92A13EB107E1F70E94CC040C946F
:1000A000FF040C9400008F7098B1982B98B998B108
:1000B000806F892388B9089598B121E030E0082E37
:1000C00001C0220F0A94EAF7922B98B9089598B1CB
:1000D00021E030E0082E01C0220F0A94EAF72095B3
:1000E000292328B9089587B18F6087B988B1807FA7
:1000F00088B90895E09AE89A0895E8981092200146
:100100000895809120018823E1F3089580912001D2
:100110000895109220010C947A00289A0895289846
:1001200008951F93CF93DF93EC010E94680380EA48
:100130000E946203182F40E050E0BE0189E10E9456
:1001400044030E946A03812FDF91CF911F9108958C
:100150001F93CF93DF93EC010E94680381E60E9416
:100160006203182FAE01BE0189E10E9444030E9480
:100170006A03812FDF91CF911F910895EF92FF9233
:100180000F931F93CF93DF931F92CDB7DEB7062F48
:100190007A0189830E94680389810E946203182F73
:1001A00040E050E0B701802F0E9444030E946A03A0
:1001B000812F0F90DF91CF911F910F91FF90EF90C2
:1001C0000895EF92FF920F931F93CF93DF931F92A7
:1001D000CDB7DEB7062F7A0189830E946803898133
:1001E0000E946203182FA701B701802F0E944403C9
:1001F0000E946A03812F0F90DF91CF911F910F9181
:10020000FF90EF9008951F93CF93DF9300D0CDB769
:10021000DEB76A8389830E946803898180620E94B5
:100220006203182F6A81862F0E9462030E946A036C
:10023000812F0F900F90DF91CF911F910895682F1C
:100240006F7785E00C9403011F920F920FB60F9207
:1002500011242F933F934F935F936F937F938F93CB
:100260009F93AF93BF93CF93EF93FF930E948F0021
:100270000E947D008091590190915A010E94A8002E
:10028000C82F8F7090E00E9453006C2F606487E04D
:100290000E94030181E0809320010E948D00FF9164
:1002A000EF91CF91BF91AF919F918F917F916F917E
:1002B0005F914F913F912F910F900FBE0F901F9024
:1002C0001895CF93DF931F92CDB7DEB789830E9435
:1002D000680389810E94620380E00E94620389832F
:1002E0000E946A0389810F90DF91CF910895CF9387
:1002F000DF93EC010E948F00209A0E9434030E9439
:100300003C03D0935A01C093590152985A9A82E003
:100310008093690080E00E94610183FFFBCF6AE364
:1003200080E00E94030163E083E00E94030161E238
:1003300084E00E94030162E086E00E94030160E025
:1003400081E00E94030160E082E00E94030160E01E
:1003500081E10E94030160E082E10E94030160E00C
:1003600083E10E94030160E084E10E94030160E0F8
:1003700085E10E94030160E086E1DF91CF910C945A
:100380000301CF93C82F86E00E946101682F697F27
:10039000C6706C2B86E0CF910C940301FF920F93F3
:1003A0001F93CF93DF93F82E8B0169E181E18F0DCD
:1003B0000E94030181E00E946101C1E0D0E00F2CA6
:1003C00001C0CC0F0A94EAF76C2F682B81E00E94E1
:1003D000030182E00E9461016C2F682B82E00E9481
:1003E00003018AE08F0D91E09F1548F0A80165E0B8
:1003F000DF91CF911F910F91FF900C94BE00F801F7
:100400006081DF91CF911F910F91FF900C940301B8
:10041000CF93C82F82E00E94610161E070E001C0CB
:10042000660FCA95EAF76095682382E0CF910C9435
:100430000301CF93DF931F92CDB7DEB70E9468030D
:1004400081EE0E94620389830E946A0389810F9072
:10045000DF91CF9108950E94190260E787E00E9422
:1004600003016AE380E00E94030189E892E00197BA
:10047000F1F700C000000895CF93DF931F92CDB72E
:10048000DEB70E94680382EE0E94620389830E94A5
:100490006A0389810F90DF91CF9108950E948F00A8
:1004A0000E943C020C947D00813011F40C942B02CC
:1004B000823089F40E943C0260E787E00E940301D9
:1004C0006BE380E00E94030189E892E00197F1F775
:1004D00000C0000008950E948F0068E380E00C9443
:1004E00003011092200182E00E9454020E947A00CF
:1004F0000C948D00CF93DF931F92CDB7DEB70E948F
:10050000680383EE0E94620389830E946A038981E3
:100510000F90DF91CF910895CF93DF931F92CDB7C6
:10052000DEB70E94680380E60E94620380E00E94BA
:10053000620389830E946A0389810F90DF91CF91C2
:100540000895EF92FF920F931F93CF93DF931F9223
:10055000CDB7DEB7062F7A0189830E9468038981AF
:1005600080660E946203182F40E050E0B701802FA0
:100570000E9444030E946A03812F0F90DF91CF9164
:100580001F910F91FF90EF900895EF92FF920F93BC
:100590001F93CF93DF931F92CDB7DEB7062F7A015B
:1005A00089830E9468038981806B0E946203182FEF
:1005B00040E050E0B701802F0E9444030E946A038C
:1005C000812F0F90DF91CF911F910F91FF90EF90AE
:1005D0000895CF93DF931F92CDB7DEB70E946803D3
:1005E0008FEF0E94620389830E946A0389810F90C2
:1005F000DF91CF9108950F931F93CF93DF93EC0179
:100600008B010E948F000E942B02AE0165E08AE000
:100610000E94BE00AE0165E080E10E94BE00C801FC
:100620000E9491000E948D0084E68A95F1F70E9455
:100630008F000E94E9028073E1F30E94E902C82F53
:100640000E94E902682F606387E00E94030182E054
:100650000E9454020E948D00C5FB882780F9DF911B
:10066000CF911F910F9108953C9A259A239A24982F
:10067000229A81E18CBD08958CB580648CBD08956B
:100680008CB58F7B8CBD08954115510519F4FB0184
:10069000982F12C0DA01FB01982F915040F0219160
:1006A0002EBD0DB407FEFDCF2EB52D93F6CF0895C8
:1006B0000DB407FEFDCF2EB5915018F021912EBD3F
:1006C000F7CF08958EBD0DB407FEFDCF8EB508950A
:1006D00044980895449A08950E940A0480E090E0A6
:1006E00008958AE091E09093DE018093DD01089502
:1006F000909122019134E0F4E0911E01F0911F01EC
:100700008083809122018F5F8093220180911E015E
:1007100090911F01019690931F0180931E018B59A8
:10072000914030F08BE591E090931F0180931E0182
:100730000895E0911801F091190121918091210112
:1007400081508093210181E0EB3DF80728F4F0937C
:100750001901E093180106C08BE991E0909319010B
:10076000809318012093C60080912101811105C05A
:100770008091C1008F7D8093C100089568E773E088
:1007800089E993E00E9432040E9450048BE591E0D5
:1007900090931F0180931E0190931D0180931C0173
:1007A000109222018BE991E090931B0180931A0132
:1007B000909319018093180110922101089580915E
:1007C00022010895809122018823E1F38091C100E4
:1007D0008F768093C100E0911C01F0911D01819101
:1007E0009091220191509093220191E0EB39F90709
:1007F00028F4F0931D01E0931C0106C02BE531E0C5
:1008000030931D0120931C019091C1009069909339
:10081000C10008959091C1009F7D9093C100909177
:1008200021019034E1F3E0911A01F0911B018083E2
:10083000809121018F5F8093210180911A01909115
:100840001B01019621E08B3D920710F08BE991E0AE
:1008500090931B0180931A018091C1008062809364
:10086000C100089525E130E03093C5002093C40015
:1008700022E02093C00026E02093C2002091C20015
:100880002093C2001092C10090932601809325010D
:100890007093240160932301892B09F0519A0895E4
:1008A0008091250190912601892B29F08091C1002A
:1008B00088628093C1008091230190912401892B4B
:1008C00029F08091C10080698093C1000895E1EC16
:1008D000F0E080818774808308951F920F920FB695
:1008E0000F9211242F933F934F935F936F937F93B6
:1008F0008F939F93AF93BF93EF93FF938091C0002B
:100900008C7159F08091C1008F768093C1008091E5
:10091000C10080698093C10007C08091C600E0914A
:100920002301F09124010995FF91EF91BF91AF91BF
:100930009F918F917F916F915F914F913F912F91F7
:100940000F900FBE0F901F9018951F920F920FB629
:100950000F9211242F933F934F935F936F937F9345
:100960008F939F93AF93BF93EF93FF93E0912501F4
:10097000F09126010995FF91EF91BF91AF919F9161
:100980008F917F916F915F914F913F912F910F9038
:100990000FBE0F901F9018950E94730086E00E9472
:1009A000530087E291E00E9477018AE00E941F01D4
:1009B000E0E4F1E080E081938F5F8931E1F7C0E00E
:1009C00060E471E080E091E00E94FB02E0E4F1E08D
:1009D00080818F5F819321E0E935F207C9F7D1E08B
:1009E000DC0F8C2F0E9453008FE39DE023E08150A9
:1009F00090402040E1F700C00000CD2FE1CFF894F7
:020A0000FFCF26
:100A0200C2C2C2C2C2E7E7E7E7E700000002000095
:100A120000006C03000000009B019B015B015B0175
:00000001FF
